{
  "contractName": "ConfirmableToken",
  "abi": [
    {
      "constant": true,
      "inputs": [
        {
          "name": "",
          "type": "uint256"
        }
      ],
      "name": "pastHolders",
      "outputs": [
        {
          "name": "",
          "type": "address"
        }
      ],
      "payable": false,
      "stateMutability": "view",
      "type": "function"
    },
    {
      "constant": true,
      "inputs": [],
      "name": "totalSupply",
      "outputs": [
        {
          "name": "",
          "type": "uint256"
        }
      ],
      "payable": false,
      "stateMutability": "view",
      "type": "function"
    },
    {
      "constant": true,
      "inputs": [
        {
          "name": "",
          "type": "uint256"
        }
      ],
      "name": "pendingTransfers",
      "outputs": [
        {
          "name": "from",
          "type": "address"
        },
        {
          "name": "to",
          "type": "address"
        },
        {
          "name": "value",
          "type": "uint256"
        }
      ],
      "payable": false,
      "stateMutability": "view",
      "type": "function"
    },
    {
      "constant": true,
      "inputs": [],
      "name": "owner",
      "outputs": [
        {
          "name": "",
          "type": "address"
        }
      ],
      "payable": false,
      "stateMutability": "view",
      "type": "function"
    },
    {
      "constant": true,
      "inputs": [
        {
          "name": "",
          "type": "uint256"
        }
      ],
      "name": "documentHashes",
      "outputs": [
        {
          "name": "",
          "type": "string"
        }
      ],
      "payable": false,
      "stateMutability": "view",
      "type": "function"
    },
    {
      "constant": false,
      "inputs": [
        {
          "name": "newOwner",
          "type": "address"
        }
      ],
      "name": "transferOwnership",
      "outputs": [],
      "payable": false,
      "stateMutability": "nonpayable",
      "type": "function"
    },
    {
      "anonymous": false,
      "inputs": [
        {
          "indexed": false,
          "name": "pendingTransfer",
          "type": "uint256"
        }
      ],
      "name": "TransferPending",
      "type": "event"
    },
    {
      "anonymous": false,
      "inputs": [
        {
          "indexed": true,
          "name": "from",
          "type": "address"
        },
        {
          "indexed": true,
          "name": "to",
          "type": "address"
        },
        {
          "indexed": false,
          "name": "value",
          "type": "uint256"
        }
      ],
      "name": "Transfer",
      "type": "event"
    },
    {
      "anonymous": false,
      "inputs": [
        {
          "indexed": false,
          "name": "pendingTransfer",
          "type": "uint256"
        }
      ],
      "name": "TransferCancelled",
      "type": "event"
    },
    {
      "anonymous": false,
      "inputs": [
        {
          "indexed": true,
          "name": "previousOwner",
          "type": "address"
        },
        {
          "indexed": true,
          "name": "newOwner",
          "type": "address"
        }
      ],
      "name": "OwnershipTransferred",
      "type": "event"
    },
    {
      "constant": true,
      "inputs": [],
      "name": "getPendingTransfersLength",
      "outputs": [
        {
          "name": "length",
          "type": "uint256"
        }
      ],
      "payable": false,
      "stateMutability": "view",
      "type": "function"
    },
    {
      "constant": true,
      "inputs": [],
      "name": "getPastHoldersLength",
      "outputs": [
        {
          "name": "length",
          "type": "uint256"
        }
      ],
      "payable": false,
      "stateMutability": "view",
      "type": "function"
    },
    {
      "constant": true,
      "inputs": [],
      "name": "getDocumentHashesLength",
      "outputs": [
        {
          "name": "length",
          "type": "uint256"
        }
      ],
      "payable": false,
      "stateMutability": "view",
      "type": "function"
    },
    {
      "constant": false,
      "inputs": [
        {
          "name": "_to",
          "type": "address"
        },
        {
          "name": "_value",
          "type": "uint256"
        }
      ],
      "name": "transfer",
      "outputs": [
        {
          "name": "",
          "type": "bool"
        }
      ],
      "payable": false,
      "stateMutability": "nonpayable",
      "type": "function"
    },
    {
      "constant": false,
      "inputs": [
        {
          "name": "_index",
          "type": "uint256"
        }
      ],
      "name": "confirmTransfer",
      "outputs": [
        {
          "name": "",
          "type": "bool"
        }
      ],
      "payable": false,
      "stateMutability": "nonpayable",
      "type": "function"
    },
    {
      "constant": false,
      "inputs": [
        {
          "name": "_index",
          "type": "uint256"
        }
      ],
      "name": "cancelTransfer",
      "outputs": [
        {
          "name": "",
          "type": "bool"
        }
      ],
      "payable": false,
      "stateMutability": "nonpayable",
      "type": "function"
    },
    {
      "constant": true,
      "inputs": [
        {
          "name": "_owner",
          "type": "address"
        }
      ],
      "name": "balanceOf",
      "outputs": [
        {
          "name": "balance",
          "type": "uint256"
        }
      ],
      "payable": false,
      "stateMutability": "view",
      "type": "function"
    },
    {
      "constant": false,
      "inputs": [
        {
          "name": "_hash",
          "type": "string"
        }
      ],
      "name": "addDocumentHash",
      "outputs": [
        {
          "name": "",
          "type": "bool"
        }
      ],
      "payable": false,
      "stateMutability": "nonpayable",
      "type": "function"
    },
    {
      "constant": false,
      "inputs": [
        {
          "name": "_index",
          "type": "uint256"
        }
      ],
      "name": "removeDocumentHash",
      "outputs": [
        {
          "name": "",
          "type": "bool"
        }
      ],
      "payable": false,
      "stateMutability": "nonpayable",
      "type": "function"
    }
  ],
  "bytecode": "0x606060405233600160006101000a81548173ffffffffffffffffffffffffffffffffffffffff021916908373ffffffffffffffffffffffffffffffffffffffff1602179055506115c9806100546000396000f3006060604052600436106100db576000357c0100000000000000000000000000000000000000000000000000000000900463ffffffff16806305a8cdc8146100e05780630c9298241461010957806318160ddd1461016c57806318e03cea146101955780632c48e7db146101be5780633c3d58ac146101f957806359caecb5146102225780636577b86a1461025d57806369912947146102fa57806370a082311461036f5780638da5cb5b146103bc5780638e383c6b14610411578063a9059cbb146104ad578063d0a8e82914610507578063f2fde38b14610542575b600080fd5b34156100eb57600080fd5b6100f361057b565b6040518082815260200191505060405180910390f35b341561011457600080fd5b61012a6004808035906020019091905050610588565b604051808273ffffffffffffffffffffffffffffffffffffffff1673ffffffffffffffffffffffffffffffffffffffff16815260200191505060405180910390f35b341561017757600080fd5b61017f6105c7565b6040518082815260200191505060405180910390f35b34156101a057600080fd5b6101a86105cd565b6040518082815260200191505060405180910390f35b34156101c957600080fd5b6101df60048080359060200190919050506105da565b604051808215151515815260200191505060405180910390f35b341561020457600080fd5b61020c610a01565b6040518082815260200191505060405180910390f35b341561022d57600080fd5b6102436004808035906020019091905050610a0e565b604051808215151515815260200191505060405180910390f35b341561026857600080fd5b61027e6004808035906020019091905050610c35565b604051808473ffffffffffffffffffffffffffffffffffffffff1673ffffffffffffffffffffffffffffffffffffffff1681526020018373ffffffffffffffffffffffffffffffffffffffff1673ffffffffffffffffffffffffffffffffffffffff168152602001828152602001935050505060405180910390f35b341561030557600080fd5b610355600480803590602001908201803590602001908080601f01602080910402602001604051908101604052809392919081815260200183838082843782019150505050505091905050610cae565b604051808215151515815260200191505060405180910390f35b341561037a57600080fd5b6103a6600480803573ffffffffffffffffffffffffffffffffffffffff16906020019091905050610d62565b6040518082815260200191505060405180910390f35b34156103c757600080fd5b6103cf610dab565b604051808273ffffffffffffffffffffffffffffffffffffffff1673ffffffffffffffffffffffffffffffffffffffff16815260200191505060405180910390f35b341561041c57600080fd5b6104326004808035906020019091905050610dd1565b6040518080602001828103825283818151815260200191508051906020019080838360005b83811015610472578082015181840152602081019050610457565b50505050905090810190601f16801561049f5780820380516001836020036101000a031916815260200191505b509250505060405180910390f35b34156104b857600080fd5b6104ed600480803573ffffffffffffffffffffffffffffffffffffffff16906020019091908035906020019091905050610e8d565b604051808215151515815260200191505060405180910390f35b341561051257600080fd5b6105286004808035906020019091905050611156565b604051808215151515815260200191505060405180910390f35b341561054d57600080fd5b610579600480803573ffffffffffffffffffffffffffffffffffffffff169060200190919050506111f6565b005b6000600680549050905090565b60058181548110151561059757fe5b90600052602060002090016000915054906101000a900473ffffffffffffffffffffffffffffffffffffffff1681565b60005481565b6000600580549050905090565b600080600080600160009054906101000a900473ffffffffffffffffffffffffffffffffffffffff1673ffffffffffffffffffffffffffffffffffffffff163373ffffffffffffffffffffffffffffffffffffffff1614151561063c57600080fd5b6003805490508510151561064f57600080fd5b60038581548110151561065e57fe5b906000526020600020906003020160000160009054906101000a900473ffffffffffffffffffffffffffffffffffffffff1692506003858154811015156106a157fe5b906000526020600020906003020160010160009054906101000a900473ffffffffffffffffffffffffffffffffffffffff1691506003858154811015156106e457fe5b90600052602060002090600302016002015490506005805480600101828161070c9190611385565b9160005260206000209001600084909190916101000a81548173ffffffffffffffffffffffffffffffffffffffff021916908373ffffffffffffffffffffffffffffffffffffffff160217905550506107ad81600260008673ffffffffffffffffffffffffffffffffffffffff1673ffffffffffffffffffffffffffffffffffffffff1681526020019081526020016000205461134e90919063ffffffff16565b600260008573ffffffffffffffffffffffffffffffffffffffff1673ffffffffffffffffffffffffffffffffffffffff1681526020019081526020016000208190555061084281600260008573ffffffffffffffffffffffffffffffffffffffff1673ffffffffffffffffffffffffffffffffffffffff1681526020019081526020016000205461136790919063ffffffff16565b600260008473ffffffffffffffffffffffffffffffffffffffff1673ffffffffffffffffffffffffffffffffffffffff1681526020019081526020016000208190555060038581548110151561089457fe5b9060005260206000209060030201600080820160006101000a81549073ffffffffffffffffffffffffffffffffffffffff02191690556001820160006101000a81549073ffffffffffffffffffffffffffffffffffffffff02191690556002820160009055505061094d81600460008673ffffffffffffffffffffffffffffffffffffffff1673ffffffffffffffffffffffffffffffffffffffff1681526020019081526020016000205461134e90919063ffffffff16565b600460008573ffffffffffffffffffffffffffffffffffffffff1673ffffffffffffffffffffffffffffffffffffffff168152602001908152602001600020819055508173ffffffffffffffffffffffffffffffffffffffff168373ffffffffffffffffffffffffffffffffffffffff167fddf252ad1be2c89b69c2b068fc378daa952ba7f163c4a11628f55a4df523b3ef836040518082815260200191505060405180910390a360019350505050919050565b6000600380549050905090565b6000806000600160009054906101000a900473ffffffffffffffffffffffffffffffffffffffff1673ffffffffffffffffffffffffffffffffffffffff163373ffffffffffffffffffffffffffffffffffffffff16141515610a6f57600080fd5b60038054905084101515610a8257600080fd5b600384815481101515610a9157fe5b906000526020600020906003020160000160009054906101000a900473ffffffffffffffffffffffffffffffffffffffff169150600384815481101515610ad457fe5b9060005260206000209060030201600201549050600384815481101515610af757fe5b9060005260206000209060030201600080820160006101000a81549073ffffffffffffffffffffffffffffffffffffffff02191690556001820160006101000a81549073ffffffffffffffffffffffffffffffffffffffff021916905560028201600090555050610bb081600460008573ffffffffffffffffffffffffffffffffffffffff1673ffffffffffffffffffffffffffffffffffffffff1681526020019081526020016000205461134e90919063ffffffff16565b600460008473ffffffffffffffffffffffffffffffffffffffff1673ffffffffffffffffffffffffffffffffffffffff168152602001908152602001600020819055507f80325e888c1c82b732ed61a3aaa950ae32a233290f74a648d1a3339666450345846040518082815260200191505060405180910390a1600192505050919050565b600381815481101515610c4457fe5b90600052602060002090600302016000915090508060000160009054906101000a900473ffffffffffffffffffffffffffffffffffffffff16908060010160009054906101000a900473ffffffffffffffffffffffffffffffffffffffff16908060020154905083565b6000600160009054906101000a900473ffffffffffffffffffffffffffffffffffffffff1673ffffffffffffffffffffffffffffffffffffffff163373ffffffffffffffffffffffffffffffffffffffff16141515610d0c57600080fd5b6000825114151515610d1d57600080fd5b60068054806001018281610d3191906113b1565b916000526020600020900160008490919091509080519060200190610d579291906113dd565b505060019050919050565b6000600260008373ffffffffffffffffffffffffffffffffffffffff1673ffffffffffffffffffffffffffffffffffffffff168152602001908152602001600020549050919050565b600160009054906101000a900473ffffffffffffffffffffffffffffffffffffffff1681565b600681815481101515610de057fe5b90600052602060002090016000915090508054600181600116156101000203166002900480601f016020809104026020016040519081016040528092919081815260200182805460018160011615610100020316600290048015610e855780601f10610e5a57610100808354040283529160200191610e85565b820191906000526020600020905b815481529060010190602001808311610e6857829003601f168201915b505050505081565b600082600073ffffffffffffffffffffffffffffffffffffffff168473ffffffffffffffffffffffffffffffffffffffff1614151515610ecc57600080fd5b82610f5e600460003373ffffffffffffffffffffffffffffffffffffffff1673ffffffffffffffffffffffffffffffffffffffff16815260200190815260200160002054600260003373ffffffffffffffffffffffffffffffffffffffff1673ffffffffffffffffffffffffffffffffffffffff1681526020019081526020016000205461134e90919063ffffffff16565b10151515610f6b57600080fd5b60038054806001018281610f7f919061145d565b916000526020600020906003020160006060604051908101604052803373ffffffffffffffffffffffffffffffffffffffff1681526020018873ffffffffffffffffffffffffffffffffffffffff16815260200187815250909190915060008201518160000160006101000a81548173ffffffffffffffffffffffffffffffffffffffff021916908373ffffffffffffffffffffffffffffffffffffffff16021790555060208201518160010160006101000a81548173ffffffffffffffffffffffffffffffffffffffff021916908373ffffffffffffffffffffffffffffffffffffffff160217905550604082015181600201555050506110c983600460003373ffffffffffffffffffffffffffffffffffffffff1673ffffffffffffffffffffffffffffffffffffffff1681526020019081526020016000205461136790919063ffffffff16565b600460003373ffffffffffffffffffffffffffffffffffffffff1673ffffffffffffffffffffffffffffffffffffffff168152602001908152602001600020819055507f2771f788944fa8e476e141eef03c13af2a42eda571e0f6bb5a97ee45d39b00d56001600380549050036040518082815260200191505060405180910390a1600191505092915050565b6000600160009054906101000a900473ffffffffffffffffffffffffffffffffffffffff1673ffffffffffffffffffffffffffffffffffffffff163373ffffffffffffffffffffffffffffffffffffffff161415156111b457600080fd5b600680549050821015156111c757600080fd5b6006828154811015156111d657fe5b906000526020600020900160006111ed919061148f565b60019050919050565b600160009054906101000a900473ffffffffffffffffffffffffffffffffffffffff1673ffffffffffffffffffffffffffffffffffffffff163373ffffffffffffffffffffffffffffffffffffffff1614151561125257600080fd5b600073ffffffffffffffffffffffffffffffffffffffff168173ffffffffffffffffffffffffffffffffffffffff161415151561128e57600080fd5b8073ffffffffffffffffffffffffffffffffffffffff16600160009054906101000a900473ffffffffffffffffffffffffffffffffffffffff1673ffffffffffffffffffffffffffffffffffffffff167f8be0079c531659141344cd1fd0a4f28419497f9722a3daafe3b4186f6b6457e060405160405180910390a380600160006101000a81548173ffffffffffffffffffffffffffffffffffffffff021916908373ffffffffffffffffffffffffffffffffffffffff16021790555050565b600082821115151561135c57fe5b818303905092915050565b600080828401905083811015151561137b57fe5b8091505092915050565b8154818355818115116113ac578183600052602060002091820191016113ab91906114d7565b5b505050565b8154818355818115116113d8578183600052602060002091820191016113d791906114fc565b5b505050565b828054600181600116156101000203166002900490600052602060002090601f016020900481019282601f1061141e57805160ff191683800117855561144c565b8280016001018555821561144c579182015b8281111561144b578251825591602001919060010190611430565b5b50905061145991906114d7565b5090565b81548183558181151161148a576003028160030283600052602060002091820191016114899190611528565b5b505050565b50805460018160011615610100020316600290046000825580601f106114b557506114d4565b601f0160209004906000526020600020908101906114d391906114d7565b5b50565b6114f991905b808211156114f55760008160009055506001016114dd565b5090565b90565b61152591905b808211156115215760008181611518919061148f565b50600101611502565b5090565b90565b61159a91905b8082111561159657600080820160006101000a81549073ffffffffffffffffffffffffffffffffffffffff02191690556001820160006101000a81549073ffffffffffffffffffffffffffffffffffffffff021916905560028201600090555060030161152e565b5090565b905600a165627a7a72305820d6b3cf3dcff56f623f2ee2469175807dcc4f5a36e3e8ebf7a961f7acc7067d390029",
  "source": "//! AssetToken contract\n//!\n//! Copyright 2018 Marco Abele, TEND Technologies\n//!\n//! Licensed under the Apache License, Version 2.0 (the \"License\");\n//! you may not use this file except in compliance with the License.\n//! You may obtain a copy of the License at\n//!\n//!     http://www.apache.org/licenses/LICENSE-2.0\n//!\n//! Unless required by applicable law or agreed to in writing, software\n//! distributed under the License is distributed on an \"AS IS\" BASIS,\n//! WITHOUT WARRANTIES OR CONDITIONS OF ANY KIND, either express or implied.\n//! See the License for the specific language governing permissions and\n//! limitations under the License.\n\npragma solidity ^0.4.19;\n\nimport \"../base/ERC20Basic.sol\";\nimport \"../base/Ownable.sol\";\nimport \"../base/SafeMath.sol\";\n\n\n/**\n * @title Confirmable token\n * @dev Basic version of a confirmable ERC-20 token, with no allowances. \n */\ncontract ConfirmableToken is ERC20Basic, Ownable {\n    using SafeMath for uint256;\n\n    struct PendingTransfer {\n        address from;\n        address to;\n        uint256 value;\n    }\n\n    // ERC-20 token states\n    mapping(address => uint256) balances;\n\n    // Confirmable token states\n    PendingTransfer[] public pendingTransfers;\n    mapping(address => uint256) lockedBalances;\n    address[] public pastHolders;\n\n    // Document hashes\n    string[] public documentHashes;\n\n    event TransferPending(uint256 pendingTransfer);\n    event Transfer(address indexed from, address indexed to, uint256 value);\n    event TransferCancelled(uint256 pendingTransfer);\n\n    function getPendingTransfersLength() public constant returns(uint256 length) {\n        return pendingTransfers.length;\n    }\n\n    function getPastHoldersLength() public constant returns(uint256 length) {\n        return pastHolders.length;\n    }\n\n    function getDocumentHashesLength() public constant returns(uint256 length) {\n        return documentHashes.length;\n    }\n\n    /**\n     * @dev Overloadable modifier to check if the user is certified.\n     * @param _who The address to check for verification.\n     */\n    modifier onlyCertified(address _who) {\n        _;\n    }\n\n    /**\n     * @dev Pending transfer for a specified address\n     * @param _to The address to transfer to.\n     * @param _value The amount to be transferred.\n     */\n    function transfer(address _to, uint256 _value) public onlyCertified(_to) returns (bool) {\n        require(_to != address(0));\n        require(balances[msg.sender].sub(lockedBalances[msg.sender]) >= _value);\n\n        pendingTransfers.push(PendingTransfer(msg.sender, _to, _value));\n        lockedBalances[msg.sender] = lockedBalances[msg.sender].add(_value);\n        TransferPending(pendingTransfers.length - 1);\n\n        return true;\n    }\n\n    /**\n     * @dev Confirm a transfer for a specified pending transfer\n     * @param _index The index of the transfer in the pending transfers list.\n     */\n    function confirmTransfer(uint256 _index) public onlyOwner returns (bool) {\n        require(_index < pendingTransfers.length);\n\n        address from = pendingTransfers[_index].from;\n        address to = pendingTransfers[_index].to;\n        uint256 value = pendingTransfers[_index].value;\n\n        // Add receiver to the list of holders, without worrying about duplicates.\n        pastHolders.push(to);\n\n        // SafeMath.sub will throw if there is not enough balance.\n        balances[from] = balances[from].sub(value);\n        balances[to] = balances[to].add(value);\n\n        delete pendingTransfers[_index];\n        lockedBalances[from] = lockedBalances[from].sub(value);\n        Transfer(from, to, value);\n\n        return true;\n    }\n\n    /**\n     * @dev Cancel a transfer for a specified pending transfer\n     * @param _index The index of the transfer in the pending transfers list.\n     */\n    function cancelTransfer(uint256 _index) public onlyOwner returns (bool) {\n        require(_index < pendingTransfers.length);\n\n        address from = pendingTransfers[_index].from;\n        uint256 value = pendingTransfers[_index].value;\n\n        delete pendingTransfers[_index];\n        lockedBalances[from] = lockedBalances[from].sub(value);\n        TransferCancelled(_index);\n\n        return true;\n    }\n\n    /**\n     * @dev Gets the balance of the specified address.\n     * @param _owner The address to query the the balance of. \n     * @return An uint256 representing the amount owned by the passed address.\n     */\n    function balanceOf(address _owner) public constant returns (uint256 balance) {\n        return balances[_owner];\n    }\n\n    /**\n     * @dev Adds a document hash to the token.\n     * @param _hash A string containing a hash of the document, for example an IPFS path \"/ipfs/QmS4ustL54uo8FzR9455qaxZwuMiUhyvMcX9Ba8nUH4uVv\".\n     */\n    function addDocumentHash(string _hash) public onlyOwner returns (bool) {\n        require(bytes(_hash).length != 0);\n\n        documentHashes.push(_hash);\n\n        return true;\n    }\n\n    /**\n     * @dev Remove a document hash from the token.\n     * @param _index The index of the hash in the document hashes list.\n     */\n    function removeDocumentHash(uint256 _index) public onlyOwner returns (bool) {\n        require(_index < documentHashes.length);\n\n        delete documentHashes[_index];\n\n        return true;\n    }\n}\n",
  "sourcePath": "/Users/pea/tend/smart-contracts/contracts/asset/ConfirmableToken.sol",
  "compiler": {
    "name": "solc",
    "version": "0.4.19+commit.c4cbbb05.Emscripten.clang"
  },
  "schemaVersion": "1.0.1",
  "updatedAt": "2018-03-01T16:15:00.210Z"
}