{
  "contractName": "SafeMathMock",
  "abi": [
    {
      "constant": true,
      "inputs": [],
      "name": "result",
      "outputs": [
        {
          "name": "",
          "type": "uint256"
        }
      ],
      "payable": false,
      "stateMutability": "view",
      "type": "function"
    },
    {
      "constant": false,
      "inputs": [
        {
          "name": "a",
          "type": "uint256"
        },
        {
          "name": "b",
          "type": "uint256"
        }
      ],
      "name": "multiply",
      "outputs": [],
      "payable": false,
      "stateMutability": "nonpayable",
      "type": "function"
    },
    {
      "constant": false,
      "inputs": [
        {
          "name": "a",
          "type": "uint256"
        },
        {
          "name": "b",
          "type": "uint256"
        }
      ],
      "name": "divide",
      "outputs": [],
      "payable": false,
      "stateMutability": "nonpayable",
      "type": "function"
    },
    {
      "constant": false,
      "inputs": [
        {
          "name": "a",
          "type": "uint256"
        },
        {
          "name": "b",
          "type": "uint256"
        }
      ],
      "name": "subtract",
      "outputs": [],
      "payable": false,
      "stateMutability": "nonpayable",
      "type": "function"
    },
    {
      "constant": false,
      "inputs": [
        {
          "name": "a",
          "type": "uint256"
        },
        {
          "name": "b",
          "type": "uint256"
        }
      ],
      "name": "add",
      "outputs": [],
      "payable": false,
      "stateMutability": "nonpayable",
      "type": "function"
    }
  ],
  "bytecode": "0x6060604052341561000f57600080fd5b6102528061001e6000396000f30060606040526004361061006d576000357c0100000000000000000000000000000000000000000000000000000000900463ffffffff168063165c4a16146100725780633ef5e4451461009e57806365372147146100ca578063771602f7146100f3578063f88e9fbf1461011f575b600080fd5b341561007d57600080fd5b61009c600480803590602001909190803590602001909190505061014b565b005b34156100a957600080fd5b6100c8600480803590602001909190803590602001909190505061015f565b005b34156100d557600080fd5b6100dd610173565b6040518082815260200191505060405180910390f35b34156100fe57600080fd5b61011d6004808035906020019091908035906020019091905050610179565b005b341561012a57600080fd5b610149600480803590602001909190803590602001909190505061018d565b005b61015582826101a1565b6000819055505050565b61016982826101d4565b6000819055505050565b60005481565b61018382826101ed565b6000819055505050565b610197828261020b565b6000819055505050565b600080828402905060008414806101c257508284828115156101bf57fe5b04145b15156101ca57fe5b8091505092915050565b60008282111515156101e257fe5b818303905092915050565b600080828401905083811015151561020157fe5b8091505092915050565b600080828481151561021957fe5b04905080915050929150505600a165627a7a723058206666ff03581d4d2b9cfee38980db06c57f6e45adfef1500d79f67bc69e71d5290029",
  "source": "//! SafeMathMock contract, taken from OpenZeppelin/zeppelin-solidity\n//!\n//! The MIT License (MIT)\n//!\n//! Copyright (c) 2016 Smart Contract Solutions, Inc.\n//!\n//! Permission is hereby granted, free of charge, to any person obtaining\n//! a copy of this software and associated documentation files (the\n//! \"Software\"), to deal in the Software without restriction, including\n//! without limitation the rights to use, copy, modify, merge, publish,\n//! distribute, sublicense, and/or sell copies of the Software, and to\n//! permit persons to whom the Software is furnished to do so, subject to\n//! the following conditions:\n//!\n//! The above copyright notice and this permission notice shall be included\n//! in all copies or substantial portions of the Software.\n//!\n//! THE SOFTWARE IS PROVIDED \"AS IS\", WITHOUT WARRANTY OF ANY KIND, EXPRESS\n//! OR IMPLIED, INCLUDING BUT NOT LIMITED TO THE WARRANTIES OF\n//! MERCHANTABILITY, FITNESS FOR A PARTICULAR PURPOSE AND NONINFRINGEMENT.\n//! IN NO EVENT SHALL THE AUTHORS OR COPYRIGHT HOLDERS BE LIABLE FOR ANY\n//! CLAIM, DAMAGES OR OTHER LIABILITY, WHETHER IN AN ACTION OF CONTRACT,\n//! TORT OR OTHERWISE, ARISING FROM, OUT OF OR IN CONNECTION WITH THE\n//! SOFTWARE OR THE USE OR OTHER DEALINGS IN THE SOFTWARE.\n\npragma solidity ^0.4.18;\n\n\nimport \"./SafeMath.sol\";\n\n\ncontract SafeMathMock {\n    uint256 public result;\n\n    function multiply(uint256 a, uint256 b) public {\n        result = SafeMath.mul(a, b);\n    }\n\n    function divide(uint256 a, uint256 b) public {\n        result = SafeMath.div(a, b);\n    }\n\n    function subtract(uint256 a, uint256 b) public {\n        result = SafeMath.sub(a, b);\n    }\n\n    function add(uint256 a, uint256 b) public {\n        result = SafeMath.add(a, b);\n    }\n}\n",
  "sourcePath": "/Users/pea/tend/smart-contracts/contracts/base/SafeMathMock.sol",
  "compiler": {
    "name": "solc",
    "version": "0.4.19+commit.c4cbbb05.Emscripten.clang"
  },
  "schemaVersion": "1.0.1",
  "updatedAt": "2018-03-01T13:17:33.417Z"
}