{
  "contractName": "TendAssets",
  "abi": [
    {
      "constant": true,
      "inputs": [
        {
          "name": "",
          "type": "uint256"
        }
      ],
      "name": "assetTokenContracts",
      "outputs": [
        {
          "name": "",
          "type": "address"
        }
      ],
      "payable": false,
      "stateMutability": "view",
      "type": "function"
    },
    {
      "constant": true,
      "inputs": [],
      "name": "owner",
      "outputs": [
        {
          "name": "",
          "type": "address"
        }
      ],
      "payable": false,
      "stateMutability": "view",
      "type": "function"
    },
    {
      "constant": false,
      "inputs": [
        {
          "name": "newOwner",
          "type": "address"
        }
      ],
      "name": "transferOwnership",
      "outputs": [],
      "payable": false,
      "stateMutability": "nonpayable",
      "type": "function"
    },
    {
      "inputs": [],
      "payable": false,
      "stateMutability": "nonpayable",
      "type": "constructor"
    },
    {
      "anonymous": false,
      "inputs": [
        {
          "indexed": false,
          "name": "assetTokenContract",
          "type": "address"
        }
      ],
      "name": "AssetAdded",
      "type": "event"
    },
    {
      "anonymous": false,
      "inputs": [
        {
          "indexed": false,
          "name": "assetTokenContract",
          "type": "address"
        },
        {
          "indexed": false,
          "name": "index",
          "type": "uint256"
        }
      ],
      "name": "AssetRemoved",
      "type": "event"
    },
    {
      "anonymous": false,
      "inputs": [
        {
          "indexed": true,
          "name": "previousOwner",
          "type": "address"
        },
        {
          "indexed": true,
          "name": "newOwner",
          "type": "address"
        }
      ],
      "name": "OwnershipTransferred",
      "type": "event"
    },
    {
      "constant": true,
      "inputs": [],
      "name": "getAssetTokenContractsLength",
      "outputs": [
        {
          "name": "length",
          "type": "uint256"
        }
      ],
      "payable": false,
      "stateMutability": "view",
      "type": "function"
    },
    {
      "constant": false,
      "inputs": [
        {
          "name": "assetTokenContract",
          "type": "address"
        }
      ],
      "name": "addAsset",
      "outputs": [
        {
          "name": "",
          "type": "bool"
        }
      ],
      "payable": false,
      "stateMutability": "nonpayable",
      "type": "function"
    },
    {
      "constant": false,
      "inputs": [
        {
          "name": "index",
          "type": "uint256"
        }
      ],
      "name": "removeAsset",
      "outputs": [
        {
          "name": "",
          "type": "bool"
        }
      ],
      "payable": false,
      "stateMutability": "nonpayable",
      "type": "function"
    }
  ],
  "bytecode": "0x6060604052341561000f57600080fd5b336000806101000a81548173ffffffffffffffffffffffffffffffffffffffff021916908373ffffffffffffffffffffffffffffffffffffffff16021790555061072e8061005e6000396000f300606060405260043610610078576000357c0100000000000000000000000000000000000000000000000000000000900463ffffffff168063129bba6c1461007d578063298410e5146100a65780632b4686af146100f75780638da5cb5b1461015a578063f14f58f1146101af578063f2fde38b146101ea575b600080fd5b341561008857600080fd5b610090610223565b6040518082815260200191505060405180910390f35b34156100b157600080fd5b6100dd600480803573ffffffffffffffffffffffffffffffffffffffff16906020019091905050610230565b604051808215151515815260200191505060405180910390f35b341561010257600080fd5b6101186004808035906020019091905050610398565b604051808273ffffffffffffffffffffffffffffffffffffffff1673ffffffffffffffffffffffffffffffffffffffff16815260200191505060405180910390f35b341561016557600080fd5b61016d6103d7565b604051808273ffffffffffffffffffffffffffffffffffffffff1673ffffffffffffffffffffffffffffffffffffffff16815260200191505060405180910390f35b34156101ba57600080fd5b6101d060048080359060200190919050506103fc565b604051808215151515815260200191505060405180910390f35b34156101f557600080fd5b610221600480803573ffffffffffffffffffffffffffffffffffffffff1690602001909190505061055c565b005b6000600180549050905090565b60008060009054906101000a900473ffffffffffffffffffffffffffffffffffffffff1673ffffffffffffffffffffffffffffffffffffffff163373ffffffffffffffffffffffffffffffffffffffff1614151561028d57600080fd5b600073ffffffffffffffffffffffffffffffffffffffff168273ffffffffffffffffffffffffffffffffffffffff16141515156102c957600080fd5b600180548060010182816102dd91906106b1565b9160005260206000209001600084909190916101000a81548173ffffffffffffffffffffffffffffffffffffffff021916908373ffffffffffffffffffffffffffffffffffffffff160217905550507f0e3c58ebfb2e7465fbb1c32e6b4f40c3c4f5ca77e8218a386aff8617831260d782604051808273ffffffffffffffffffffffffffffffffffffffff1673ffffffffffffffffffffffffffffffffffffffff16815260200191505060405180910390a160019050919050565b6001818154811015156103a757fe5b90600052602060002090016000915054906101000a900473ffffffffffffffffffffffffffffffffffffffff1681565b6000809054906101000a900473ffffffffffffffffffffffffffffffffffffffff1681565b6000806000809054906101000a900473ffffffffffffffffffffffffffffffffffffffff1673ffffffffffffffffffffffffffffffffffffffff163373ffffffffffffffffffffffffffffffffffffffff1614151561045a57600080fd5b6001805490508310151561046d57600080fd5b60018381548110151561047c57fe5b906000526020600020900160009054906101000a900473ffffffffffffffffffffffffffffffffffffffff1690506001838154811015156104b957fe5b906000526020600020900160006101000a81549073ffffffffffffffffffffffffffffffffffffffff02191690557f3406221f53114f44c9a1bb93d08ee55735f39bf235a54741684a52501207bb548184604051808373ffffffffffffffffffffffffffffffffffffffff1673ffffffffffffffffffffffffffffffffffffffff1681526020018281526020019250505060405180910390a16001915050919050565b6000809054906101000a900473ffffffffffffffffffffffffffffffffffffffff1673ffffffffffffffffffffffffffffffffffffffff163373ffffffffffffffffffffffffffffffffffffffff161415156105b757600080fd5b600073ffffffffffffffffffffffffffffffffffffffff168173ffffffffffffffffffffffffffffffffffffffff16141515156105f357600080fd5b8073ffffffffffffffffffffffffffffffffffffffff166000809054906101000a900473ffffffffffffffffffffffffffffffffffffffff1673ffffffffffffffffffffffffffffffffffffffff167f8be0079c531659141344cd1fd0a4f28419497f9722a3daafe3b4186f6b6457e060405160405180910390a3806000806101000a81548173ffffffffffffffffffffffffffffffffffffffff021916908373ffffffffffffffffffffffffffffffffffffffff16021790555050565b8154818355818115116106d8578183600052602060002091820191016106d791906106dd565b5b505050565b6106ff91905b808211156106fb5760008160009055506001016106e3565b5090565b905600a165627a7a72305820524087af94ed9b6e2db39000b1a27b21945b90c9a88bced1c5aa69a5af880c590029",
  "source": "//! TendAssets contract\n//!\n//! Copyright 2018 Marco Abele, TEND Technologies\n//!\n//! Licensed under the Apache License, Version 2.0 (the \"License\");\n//! you may not use this file except in compliance with the License.\n//! You may obtain a copy of the License at\n//!\n//!     http://www.apache.org/licenses/LICENSE-2.0\n//!\n//! Unless required by applicable law or agreed to in writing, software\n//! distributed under the License is distributed on an \"AS IS\" BASIS,\n//! WITHOUT WARRANTIES OR CONDITIONS OF ANY KIND, either express or implied.\n//! See the License for the specific language governing permissions and\n//! limitations under the License.\n\npragma solidity ^0.4.19;\n\nimport \"./base/Ownable.sol\";\nimport \"./asset/AssetToken.sol\";\n\n\ncontract TendAssets is Ownable {\n    /// All asset contracts registered on the TEND platform.\n    AssetToken[] public assetTokenContracts;\n\n    /// Each time an asset is added.\n    event AssetAdded(AssetToken assetTokenContract);\n\n    /// Each time an asset is removed.\n    event AssetRemoved(AssetToken assetTokenContract, uint256 index);\n\n    /// Constructor.\n    function TendAssets() public {}\n\n    /**\n     * Getter of the asset token contracts number, the contracts themselves can\n     * be gotten with the automatically-generated assetTokenContracts() function.\n     */\n    function getAssetTokenContractsLength() public constant returns(uint256 length) {\n        return assetTokenContracts.length;\n    }\n\n    /// Register a TEND asset.\n    function addAsset(AssetToken assetTokenContract) public onlyOwner returns (bool) {\n        require(assetTokenContract != AssetToken(0));\n\n        assetTokenContracts.push(assetTokenContract);\n        AssetAdded(assetTokenContract);\n\n        return true;\n    }\n\n    /// Unregister a TEND asset.\n    function removeAsset(uint256 index) public onlyOwner returns (bool) {\n        require(index < assetTokenContracts.length);\n\n        AssetToken assetTokenContract = assetTokenContracts[index];\n        delete assetTokenContracts[index];\n        AssetRemoved(assetTokenContract, index);\n\n        return true;\n    }\n}\n",
  "sourcePath": "/Users/pea/tend/smart-contracts/contracts/TendAssets.sol",
  "compiler": {
    "name": "solc",
    "version": "0.4.19+commit.c4cbbb05.Emscripten.clang"
  },
  "schemaVersion": "1.0.1",
  "updatedAt": "2018-03-01T13:19:54.968Z"
}